{
  "contractName": "BlackBoxAccessPass",
  "abi": [
    {
      "inputs": [],
      "stateMutability": "nonpayable",
      "type": "constructor"
    },
    {
      "anonymous": false,
      "inputs": [
        {
          "indexed": true,
          "internalType": "address",
          "name": "owner",
          "type": "address"
        },
        {
          "indexed": true,
          "internalType": "address",
          "name": "approved",
          "type": "address"
        },
        {
          "indexed": true,
          "internalType": "uint256",
          "name": "tokenId",
          "type": "uint256"
        }
      ],
      "name": "Approval",
      "type": "event"
    },
    {
      "anonymous": false,
      "inputs": [
        {
          "indexed": true,
          "internalType": "address",
          "name": "owner",
          "type": "address"
        },
        {
          "indexed": true,
          "internalType": "address",
          "name": "operator",
          "type": "address"
        },
        {
          "indexed": false,
          "internalType": "bool",
          "name": "approved",
          "type": "bool"
        }
      ],
      "name": "ApprovalForAll",
      "type": "event"
    },
    {
      "anonymous": false,
      "inputs": [
        {
          "indexed": true,
          "internalType": "address",
          "name": "previousOwner",
          "type": "address"
        },
        {
          "indexed": true,
          "internalType": "address",
          "name": "newOwner",
          "type": "address"
        }
      ],
      "name": "OwnershipTransferred",
      "type": "event"
    },
    {
      "anonymous": false,
      "inputs": [
        {
          "indexed": true,
          "internalType": "address",
          "name": "from",
          "type": "address"
        },
        {
          "indexed": true,
          "internalType": "address",
          "name": "to",
          "type": "address"
        },
        {
          "indexed": true,
          "internalType": "uint256",
          "name": "tokenId",
          "type": "uint256"
        }
      ],
      "name": "Transfer",
      "type": "event"
    },
    {
      "inputs": [],
      "name": "MAX_ACCESS_PASS",
      "outputs": [
        {
          "internalType": "uint256",
          "name": "",
          "type": "uint256"
        }
      ],
      "stateMutability": "view",
      "type": "function",
      "constant": true
    },
    {
      "inputs": [
        {
          "internalType": "address",
          "name": "to",
          "type": "address"
        },
        {
          "internalType": "uint256",
          "name": "tokenId",
          "type": "uint256"
        }
      ],
      "name": "approve",
      "outputs": [],
      "stateMutability": "nonpayable",
      "type": "function"
    },
    {
      "inputs": [
        {
          "internalType": "address",
          "name": "owner",
          "type": "address"
        }
      ],
      "name": "balanceOf",
      "outputs": [
        {
          "internalType": "uint256",
          "name": "",
          "type": "uint256"
        }
      ],
      "stateMutability": "view",
      "type": "function",
      "constant": true
    },
    {
      "inputs": [],
      "name": "baseURI",
      "outputs": [
        {
          "internalType": "string",
          "name": "",
          "type": "string"
        }
      ],
      "stateMutability": "view",
      "type": "function",
      "constant": true
    },
    {
      "inputs": [
        {
          "internalType": "uint256",
          "name": "tokenId",
          "type": "uint256"
        }
      ],
      "name": "burn",
      "outputs": [],
      "stateMutability": "nonpayable",
      "type": "function"
    },
    {
      "inputs": [
        {
          "internalType": "uint256",
          "name": "tokenId",
          "type": "uint256"
        }
      ],
      "name": "getApproved",
      "outputs": [
        {
          "internalType": "address",
          "name": "",
          "type": "address"
        }
      ],
      "stateMutability": "view",
      "type": "function",
      "constant": true
    },
    {
      "inputs": [
        {
          "internalType": "address",
          "name": "owner",
          "type": "address"
        },
        {
          "internalType": "address",
          "name": "operator",
          "type": "address"
        }
      ],
      "name": "isApprovedForAll",
      "outputs": [
        {
          "internalType": "bool",
          "name": "",
          "type": "bool"
        }
      ],
      "stateMutability": "view",
      "type": "function",
      "constant": true
    },
    {
      "inputs": [],
      "name": "maxPassTxn",
      "outputs": [
        {
          "internalType": "uint256",
          "name": "",
          "type": "uint256"
        }
      ],
      "stateMutability": "view",
      "type": "function",
      "constant": true
    },
    {
      "inputs": [],
      "name": "name",
      "outputs": [
        {
          "internalType": "string",
          "name": "",
          "type": "string"
        }
      ],
      "stateMutability": "view",
      "type": "function",
      "constant": true
    },
    {
      "inputs": [],
      "name": "owner",
      "outputs": [
        {
          "internalType": "address",
          "name": "",
          "type": "address"
        }
      ],
      "stateMutability": "view",
      "type": "function",
      "constant": true
    },
    {
      "inputs": [
        {
          "internalType": "uint256",
          "name": "tokenId",
          "type": "uint256"
        }
      ],
      "name": "ownerOf",
      "outputs": [
        {
          "internalType": "address",
          "name": "",
          "type": "address"
        }
      ],
      "stateMutability": "view",
      "type": "function",
      "constant": true
    },
    {
      "inputs": [],
      "name": "passPrice",
      "outputs": [
        {
          "internalType": "uint256",
          "name": "",
          "type": "uint256"
        }
      ],
      "stateMutability": "view",
      "type": "function",
      "constant": true
    },
    {
      "inputs": [],
      "name": "renounceOwnership",
      "outputs": [],
      "stateMutability": "nonpayable",
      "type": "function"
    },
    {
      "inputs": [
        {
          "internalType": "address",
          "name": "from",
          "type": "address"
        },
        {
          "internalType": "address",
          "name": "to",
          "type": "address"
        },
        {
          "internalType": "uint256",
          "name": "tokenId",
          "type": "uint256"
        }
      ],
      "name": "safeTransferFrom",
      "outputs": [],
      "stateMutability": "nonpayable",
      "type": "function"
    },
    {
      "inputs": [
        {
          "internalType": "address",
          "name": "from",
          "type": "address"
        },
        {
          "internalType": "address",
          "name": "to",
          "type": "address"
        },
        {
          "internalType": "uint256",
          "name": "tokenId",
          "type": "uint256"
        },
        {
          "internalType": "bytes",
          "name": "_data",
          "type": "bytes"
        }
      ],
      "name": "safeTransferFrom",
      "outputs": [],
      "stateMutability": "nonpayable",
      "type": "function"
    },
    {
      "inputs": [],
      "name": "saleIsActive",
      "outputs": [
        {
          "internalType": "bool",
          "name": "",
          "type": "bool"
        }
      ],
      "stateMutability": "view",
      "type": "function",
      "constant": true
    },
    {
      "inputs": [
        {
          "internalType": "address",
          "name": "operator",
          "type": "address"
        },
        {
          "internalType": "bool",
          "name": "approved",
          "type": "bool"
        }
      ],
      "name": "setApprovalForAll",
      "outputs": [],
      "stateMutability": "nonpayable",
      "type": "function"
    },
    {
      "inputs": [],
      "name": "symbol",
      "outputs": [
        {
          "internalType": "string",
          "name": "",
          "type": "string"
        }
      ],
      "stateMutability": "view",
      "type": "function",
      "constant": true
    },
    {
      "inputs": [
        {
          "internalType": "uint256",
          "name": "index",
          "type": "uint256"
        }
      ],
      "name": "tokenByIndex",
      "outputs": [
        {
          "internalType": "uint256",
          "name": "",
          "type": "uint256"
        }
      ],
      "stateMutability": "view",
      "type": "function",
      "constant": true
    },
    {
      "inputs": [
        {
          "internalType": "address",
          "name": "owner",
          "type": "address"
        },
        {
          "internalType": "uint256",
          "name": "index",
          "type": "uint256"
        }
      ],
      "name": "tokenOfOwnerByIndex",
      "outputs": [
        {
          "internalType": "uint256",
          "name": "",
          "type": "uint256"
        }
      ],
      "stateMutability": "view",
      "type": "function",
      "constant": true
    },
    {
      "inputs": [
        {
          "internalType": "uint256",
          "name": "tokenId",
          "type": "uint256"
        }
      ],
      "name": "tokenURI",
      "outputs": [
        {
          "internalType": "string",
          "name": "",
          "type": "string"
        }
      ],
      "stateMutability": "view",
      "type": "function",
      "constant": true
    },
    {
      "inputs": [],
      "name": "totalSupply",
      "outputs": [
        {
          "internalType": "uint256",
          "name": "",
          "type": "uint256"
        }
      ],
      "stateMutability": "view",
      "type": "function",
      "constant": true
    },
    {
      "inputs": [
        {
          "internalType": "address",
          "name": "from",
          "type": "address"
        },
        {
          "internalType": "address",
          "name": "to",
          "type": "address"
        },
        {
          "internalType": "uint256",
          "name": "tokenId",
          "type": "uint256"
        }
      ],
      "name": "transferFrom",
      "outputs": [],
      "stateMutability": "nonpayable",
      "type": "function"
    },
    {
      "inputs": [
        {
          "internalType": "address",
          "name": "newOwner",
          "type": "address"
        }
      ],
      "name": "transferOwnership",
      "outputs": [],
      "stateMutability": "nonpayable",
      "type": "function"
    },
    {
      "inputs": [
        {
          "internalType": "address",
          "name": "manager",
          "type": "address"
        }
      ],
      "name": "setManager",
      "outputs": [],
      "stateMutability": "nonpayable",
      "type": "function"
    },
    {
      "inputs": [
        {
          "internalType": "string",
          "name": "newBaseURI",
          "type": "string"
        }
      ],
      "name": "setBaseURI",
      "outputs": [],
      "stateMutability": "nonpayable",
      "type": "function"
    },
    {
      "inputs": [
        {
          "internalType": "uint256",
          "name": "_maxSupply",
          "type": "uint256"
        }
      ],
      "name": "setMaxSupply",
      "outputs": [],
      "stateMutability": "nonpayable",
      "type": "function"
    },
    {
      "inputs": [
        {
          "internalType": "uint256",
          "name": "_price",
          "type": "uint256"
        }
      ],
      "name": "setPrice",
      "outputs": [],
      "stateMutability": "nonpayable",
      "type": "function"
    },
    {
      "inputs": [],
      "name": "totalToken",
      "outputs": [
        {
          "internalType": "uint256",
          "name": "",
          "type": "uint256"
        }
      ],
      "stateMutability": "view",
      "type": "function",
      "constant": true
    },
    {
      "inputs": [],
      "name": "contractBalance",
      "outputs": [
        {
          "internalType": "uint256",
          "name": "",
          "type": "uint256"
        }
      ],
      "stateMutability": "view",
      "type": "function",
      "constant": true
    },
    {
      "inputs": [],
      "name": "flipSale",
      "outputs": [],
      "stateMutability": "nonpayable",
      "type": "function"
    },
    {
      "inputs": [],
      "name": "stateSale",
      "outputs": [
        {
          "internalType": "bool",
          "name": "",
          "type": "bool"
        }
      ],
      "stateMutability": "view",
      "type": "function",
      "constant": true
    },
    {
      "inputs": [
        {
          "internalType": "address payable",
          "name": "to",
          "type": "address"
        }
      ],
      "name": "withdrawForOwner",
      "outputs": [],
      "stateMutability": "payable",
      "type": "function",
      "payable": true
    },
    {
      "inputs": [
        {
          "internalType": "address",
          "name": "_address",
          "type": "address"
        }
      ],
      "name": "withdrawAll",
      "outputs": [],
      "stateMutability": "nonpayable",
      "type": "function"
    },
    {
      "inputs": [
        {
          "internalType": "address",
          "name": "_address",
          "type": "address"
        },
        {
          "internalType": "uint256",
          "name": "_amount",
          "type": "uint256"
        }
      ],
      "name": "_widthdraw",
      "outputs": [],
      "stateMutability": "nonpayable",
      "type": "function"
    },
    {
      "inputs": [
        {
          "internalType": "uint256",
          "name": "reserveAmount",
          "type": "uint256"
        },
        {
          "internalType": "address",
          "name": "mintAddress",
          "type": "address"
        }
      ],
      "name": "reserveMintPass",
      "outputs": [],
      "stateMutability": "nonpayable",
      "type": "function"
    },
    {
      "inputs": [
        {
          "internalType": "uint256",
          "name": "numberOfTokens",
          "type": "uint256"
        }
      ],
      "name": "mintAccessPass",
      "outputs": [],
      "stateMutability": "payable",
      "type": "function",
      "payable": true
    },
    {
      "inputs": [
        {
          "internalType": "bytes4",
          "name": "interfaceId",
          "type": "bytes4"
        }
      ],
      "name": "supportsInterface",
      "outputs": [
        {
          "internalType": "bool",
          "name": "",
          "type": "bool"
        }
      ],
      "stateMutability": "view",
      "type": "function",
      "constant": true
    }
  ],
  "bytecode": "0x6080604052610dac600c55671b0fcaab20030000600d556000600f60006101000a81548160ff0219169083151502179055503480156200003e57600080fd5b506040518060400160405280602081526020017f424c41434b20424f5820434f4c4c4543544956452041434345535320504153538152506040518060400160405280600b81526020017f41434345535320504153530000000000000000000000000000000000000000008152508160009080519060200190620000c3929190620001d3565b508060019080519060200190620000dc929190620001d3565b505050620000ff620000f36200010560201b60201c565b6200010d60201b60201c565b620002e8565b600033905090565b6000600a60009054906101000a900473ffffffffffffffffffffffffffffffffffffffff16905081600a60006101000a81548173ffffffffffffffffffffffffffffffffffffffff021916908373ffffffffffffffffffffffffffffffffffffffff1602179055508173ffffffffffffffffffffffffffffffffffffffff168173ffffffffffffffffffffffffffffffffffffffff167f8be0079c531659141344cd1fd0a4f28419497f9722a3daafe3b4186f6b6457e060405160405180910390a35050565b828054620001e190620002b2565b90600052602060002090601f01602090048101928262000205576000855562000251565b82601f106200022057805160ff191683800117855562000251565b8280016001018555821562000251579182015b828111156200025057825182559160200191906001019062000233565b5b50905062000260919062000264565b5090565b5b808211156200027f57600081600090555060010162000265565b5090565b7f4e487b7100000000000000000000000000000000000000000000000000000000600052602260045260246000fd5b60006002820490506001821680620002cb57607f821691505b60208210811415620002e257620002e162000283565b5b50919050565b614ff880620002f86000396000f3fe6080604052600436106102255760003560e01c8063728e0c3d11610123578063b88d4fde116100ab578063d0ebdbe71161006f578063d0ebdbe7146107d7578063e985e9c514610800578063eb8d24441461083d578063f2fde38b14610868578063fa09e6301461089157610225565b8063b88d4fde146106f0578063c4d6a1fb14610719578063c87b56dd14610744578063ca3286f514610781578063cf1582e8146107ac57610225565b806391b7f5ed116100f257806391b7f5ed1461062e57806395d89b4114610657578063a22cb46514610682578063ae9de7f6146106ab578063b4e380d5146106c757610225565b8063728e0c3d146105965780637ba5e621146105c15780638b7afe2e146105d85780638da5cb5b1461060357610225565b806342842e0e116101b15780636352211e116101755780636352211e146104b15780636c0360eb146104ee5780636f8b44b01461051957806370a0823114610542578063715018a61461057f57610225565b806342842e0e146103ce57806342966c68146103f75780634f6ccce71461042057806355f804b31461045d578063626be5671461048657610225565b806318160ddd116101f857806318160ddd146102f857806323b872dd14610323578063253c98671461034c5780632f745c59146103685780633f0ab918146103a557610225565b806301ffc9a71461022a57806306fdde0314610267578063081812fc14610292578063095ea7b3146102cf575b600080fd5b34801561023657600080fd5b50610251600480360381019061024c91906135ff565b6108ba565b60405161025e9190613647565b60405180910390f35b34801561027357600080fd5b5061027c6108cc565b60405161028991906136fb565b60405180910390f35b34801561029e57600080fd5b506102b960048036038101906102b49190613753565b61095e565b6040516102c691906137c1565b60405180910390f35b3480156102db57600080fd5b506102f660048036038101906102f19190613808565b6109e3565b005b34801561030457600080fd5b5061030d610afb565b60405161031a9190613857565b60405180910390f35b34801561032f57600080fd5b5061034a60048036038101906103459190613872565b610b08565b005b61036660048036038101906103619190613903565b610b68565b005b34801561037457600080fd5b5061038f600480360381019061038a9190613808565b610c8d565b60405161039c9190613857565b60405180910390f35b3480156103b157600080fd5b506103cc60048036038101906103c79190613930565b610d32565b005b3480156103da57600080fd5b506103f560048036038101906103f09190613872565b610ea5565b005b34801561040357600080fd5b5061041e60048036038101906104199190613753565b610ec5565b005b34801561042c57600080fd5b5061044760048036038101906104429190613753565b610f21565b6040516104549190613857565b60405180910390f35b34801561046957600080fd5b50610484600480360381019061047f9190613aa5565b610f92565b005b34801561049257600080fd5b5061049b611087565b6040516104a89190613857565b60405180910390f35b3480156104bd57600080fd5b506104d860048036038101906104d39190613753565b611098565b6040516104e591906137c1565b60405180910390f35b3480156104fa57600080fd5b5061050361114a565b60405161051091906136fb565b60405180910390f35b34801561052557600080fd5b50610540600480360381019061053b9190613753565b6111d8565b005b34801561054e57600080fd5b5061056960048036038101906105649190613aee565b6112bd565b6040516105769190613857565b60405180910390f35b34801561058b57600080fd5b50610594611375565b005b3480156105a257600080fd5b506105ab6113fd565b6040516105b89190613857565b60405180910390f35b3480156105cd57600080fd5b506105d6611403565b005b3480156105e457600080fd5b506105ed61150a565b6040516105fa9190613857565b60405180910390f35b34801561060f57600080fd5b506106186115ed565b60405161062591906137c1565b60405180910390f35b34801561063a57600080fd5b5061065560048036038101906106509190613753565b611617565b005b34801561066357600080fd5b5061066c6116fc565b60405161067991906136fb565b60405180910390f35b34801561068e57600080fd5b506106a960048036038101906106a49190613b47565b61178e565b005b6106c560048036038101906106c09190613753565b61190f565b005b3480156106d357600080fd5b506106ee60048036038101906106e99190613808565b611b7e565b005b3480156106fc57600080fd5b5061071760048036038101906107129190613c28565b611d0a565b005b34801561072557600080fd5b5061072e611d6c565b60405161073b9190613647565b60405180910390f35b34801561075057600080fd5b5061076b60048036038101906107669190613753565b611d83565b60405161077891906136fb565b60405180910390f35b34801561078d57600080fd5b50610796611e2a565b6040516107a39190613857565b60405180910390f35b3480156107b857600080fd5b506107c1611e30565b6040516107ce9190613857565b60405180910390f35b3480156107e357600080fd5b506107fe60048036038101906107f99190613aee565b611e35565b005b34801561080c57600080fd5b5061082760048036038101906108229190613cab565b611ef5565b6040516108349190613647565b60405180910390f35b34801561084957600080fd5b50610852611f89565b60405161085f9190613647565b60405180910390f35b34801561087457600080fd5b5061088f600480360381019061088a9190613aee565b611f9c565b005b34801561089d57600080fd5b506108b860048036038101906108b39190613aee565b612094565b005b60006108c582612268565b9050919050565b6060600080546108db90613d1a565b80601f016020809104026020016040519081016040528092919081815260200182805461090790613d1a565b80156109545780601f1061092957610100808354040283529160200191610954565b820191906000526020600020905b81548152906001019060200180831161093757829003601f168201915b5050505050905090565b6000610969826122e2565b6109a8576040517f08c379a000000000000000000000000000000000000000000000000000000000815260040161099f90613dbe565b60405180910390fd5b6004600083815260200190815260200160002060009054906101000a900473ffffffffffffffffffffffffffffffffffffffff169050919050565b60006109ee82611098565b90508073ffffffffffffffffffffffffffffffffffffffff168373ffffffffffffffffffffffffffffffffffffffff161415610a5f576040517f08c379a0000000000000000000000000000000000000000000000000000000008152600401610a5690613e50565b60405180910390fd5b8073ffffffffffffffffffffffffffffffffffffffff16610a7e61234e565b73ffffffffffffffffffffffffffffffffffffffff161480610aad5750610aac81610aa761234e565b611ef5565b5b610aec576040517f08c379a0000000000000000000000000000000000000000000000000000000008152600401610ae390613ee2565b60405180910390fd5b610af68383612356565b505050565b6000600880549050905090565b610b19610b1361234e565b8261240f565b610b58576040517f08c379a0000000000000000000000000000000000000000000000000000000008152600401610b4f90613f74565b60405180910390fd5b610b638383836124ed565b505050565b610b7061234e565b73ffffffffffffffffffffffffffffffffffffffff16610b8e6115ed565b73ffffffffffffffffffffffffffffffffffffffff161480610c045750610bb361234e565b73ffffffffffffffffffffffffffffffffffffffff16601160009054906101000a900473ffffffffffffffffffffffffffffffffffffffff1673ffffffffffffffffffffffffffffffffffffffff16145b610c43576040517f08c379a0000000000000000000000000000000000000000000000000000000008152600401610c3a90614006565b60405180910390fd5b8073ffffffffffffffffffffffffffffffffffffffff166108fc479081150290604051600060405180830381858888f19350505050158015610c89573d6000803e3d6000fd5b5050565b6000610c98836112bd565b8210610cd9576040517f08c379a0000000000000000000000000000000000000000000000000000000008152600401610cd090614098565b60405180910390fd5b600660008473ffffffffffffffffffffffffffffffffffffffff1673ffffffffffffffffffffffffffffffffffffffff168152602001908152602001600020600083815260200190815260200160002054905092915050565b610d3a61234e565b73ffffffffffffffffffffffffffffffffffffffff16610d586115ed565b73ffffffffffffffffffffffffffffffffffffffff161480610dce5750610d7d61234e565b73ffffffffffffffffffffffffffffffffffffffff16601160009054906101000a900473ffffffffffffffffffffffffffffffffffffffff1673ffffffffffffffffffffffffffffffffffffffff16145b610e0d576040517f08c379a0000000000000000000000000000000000000000000000000000000008152600401610e0490614006565b60405180910390fd5b600c54610e18610afb565b1115610e59576040517f08c379a0000000000000000000000000000000000000000000000000000000008152600401610e5090614104565b60405180910390fd5b60005b82811015610ea057610e83826001610e74600b612749565b610e7e9190614153565b612757565b610e8d600b612775565b8080610e98906141a9565b915050610e5c565b505050565b610ec083838360405180602001604052806000815250611d0a565b505050565b610ed6610ed061234e565b8261240f565b610f15576040517f08c379a0000000000000000000000000000000000000000000000000000000008152600401610f0c90614264565b60405180910390fd5b610f1e8161278b565b50565b6000610f2b610afb565b8210610f6c576040517f08c379a0000000000000000000000000000000000000000000000000000000008152600401610f63906142f6565b60405180910390fd5b60088281548110610f8057610f7f614316565b5b90600052602060002001549050919050565b610f9a61234e565b73ffffffffffffffffffffffffffffffffffffffff16610fb86115ed565b73ffffffffffffffffffffffffffffffffffffffff16148061102e5750610fdd61234e565b73ffffffffffffffffffffffffffffffffffffffff16601160009054906101000a900473ffffffffffffffffffffffffffffffffffffffff1673ffffffffffffffffffffffffffffffffffffffff16145b61106d576040517f08c379a000000000000000000000000000000000000000000000000000000000815260040161106490614006565b60405180910390fd5b80600e90805190602001906110839291906134f0565b5050565b6000611093600b612749565b905090565b6000806002600084815260200190815260200160002060009054906101000a900473ffffffffffffffffffffffffffffffffffffffff169050600073ffffffffffffffffffffffffffffffffffffffff168173ffffffffffffffffffffffffffffffffffffffff161415611141576040517f08c379a0000000000000000000000000000000000000000000000000000000008152600401611138906143b7565b60405180910390fd5b80915050919050565b600e805461115790613d1a565b80601f016020809104026020016040519081016040528092919081815260200182805461118390613d1a565b80156111d05780601f106111a5576101008083540402835291602001916111d0565b820191906000526020600020905b8154815290600101906020018083116111b357829003601f168201915b505050505081565b6111e061234e565b73ffffffffffffffffffffffffffffffffffffffff166111fe6115ed565b73ffffffffffffffffffffffffffffffffffffffff161480611274575061122361234e565b73ffffffffffffffffffffffffffffffffffffffff16601160009054906101000a900473ffffffffffffffffffffffffffffffffffffffff1673ffffffffffffffffffffffffffffffffffffffff16145b6112b3576040517f08c379a00000000000000000000000000000000000000000000000000000000081526004016112aa90614006565b60405180910390fd5b80600c8190555050565b60008073ffffffffffffffffffffffffffffffffffffffff168273ffffffffffffffffffffffffffffffffffffffff16141561132e576040517f08c379a000000000000000000000000000000000000000000000000000000000815260040161132590614449565b60405180910390fd5b600360008373ffffffffffffffffffffffffffffffffffffffff1673ffffffffffffffffffffffffffffffffffffffff168152602001908152602001600020549050919050565b61137d61234e565b73ffffffffffffffffffffffffffffffffffffffff1661139b6115ed565b73ffffffffffffffffffffffffffffffffffffffff16146113f1576040517f08c379a00000000000000000000000000000000000000000000000000000000081526004016113e8906144b5565b60405180910390fd5b6113fb600061289c565b565b600c5481565b61140b61234e565b73ffffffffffffffffffffffffffffffffffffffff166114296115ed565b73ffffffffffffffffffffffffffffffffffffffff16148061149f575061144e61234e565b73ffffffffffffffffffffffffffffffffffffffff16601160009054906101000a900473ffffffffffffffffffffffffffffffffffffffff1673ffffffffffffffffffffffffffffffffffffffff16145b6114de576040517f08c379a00000000000000000000000000000000000000000000000000000000081526004016114d590614006565b60405180910390fd5b600f60009054906101000a900460ff1615600f60006101000a81548160ff021916908315150217905550565b600061151461234e565b73ffffffffffffffffffffffffffffffffffffffff166115326115ed565b73ffffffffffffffffffffffffffffffffffffffff1614806115a8575061155761234e565b73ffffffffffffffffffffffffffffffffffffffff16601160009054906101000a900473ffffffffffffffffffffffffffffffffffffffff1673ffffffffffffffffffffffffffffffffffffffff16145b6115e7576040517f08c379a00000000000000000000000000000000000000000000000000000000081526004016115de90614006565b60405180910390fd5b47905090565b6000600a60009054906101000a900473ffffffffffffffffffffffffffffffffffffffff16905090565b61161f61234e565b73ffffffffffffffffffffffffffffffffffffffff1661163d6115ed565b73ffffffffffffffffffffffffffffffffffffffff1614806116b3575061166261234e565b73ffffffffffffffffffffffffffffffffffffffff16601160009054906101000a900473ffffffffffffffffffffffffffffffffffffffff1673ffffffffffffffffffffffffffffffffffffffff16145b6116f2576040517f08c379a00000000000000000000000000000000000000000000000000000000081526004016116e990614006565b60405180910390fd5b80600d8190555050565b60606001805461170b90613d1a565b80601f016020809104026020016040519081016040528092919081815260200182805461173790613d1a565b80156117845780601f1061175957610100808354040283529160200191611784565b820191906000526020600020905b81548152906001019060200180831161176757829003601f168201915b5050505050905090565b61179661234e565b73ffffffffffffffffffffffffffffffffffffffff168273ffffffffffffffffffffffffffffffffffffffff161415611804576040517f08c379a00000000000000000000000000000000000000000000000000000000081526004016117fb90614521565b60405180910390fd5b806005600061181161234e565b73ffffffffffffffffffffffffffffffffffffffff1673ffffffffffffffffffffffffffffffffffffffff16815260200190815260200160002060008473ffffffffffffffffffffffffffffffffffffffff1673ffffffffffffffffffffffffffffffffffffffff16815260200190815260200160002060006101000a81548160ff0219169083151502179055508173ffffffffffffffffffffffffffffffffffffffff166118be61234e565b73ffffffffffffffffffffffffffffffffffffffff167f17307eab39ab6107e8899845ad3d59bd9653f200f220920489ca2b5937696c31836040516119039190613647565b60405180910390a35050565b600f60009054906101000a900460ff1661195e576040517f08c379a0000000000000000000000000000000000000000000000000000000008152600401611955906145b3565b60405180910390fd5b3481600d5461196d91906145d3565b11156119ae576040517f08c379a00000000000000000000000000000000000000000000000000000000081526004016119a590614679565b60405180910390fd5b60028111156119f2576040517f08c379a00000000000000000000000000000000000000000000000000000000081526004016119e99061470b565b60405180910390fd5b6002601060003373ffffffffffffffffffffffffffffffffffffffff1673ffffffffffffffffffffffffffffffffffffffff168152602001908152602001600020541115611a75576040517f08c379a0000000000000000000000000000000000000000000000000000000008152600401611a6c9061479d565b60405180910390fd5b600c5481611a81610afb565b611a8b9190614153565b1115611acc576040517f08c379a0000000000000000000000000000000000000000000000000000000008152600401611ac390614809565b60405180910390fd5b60005b81811015611b7a5760006001611ae5600b612749565b611aef9190614153565b9050600c548111611b6657611b043382612757565b611b0e600b612775565b6001601060003373ffffffffffffffffffffffffffffffffffffffff1673ffffffffffffffffffffffffffffffffffffffff1681526020019081526020016000206000828254611b5e9190614153565b925050819055505b508080611b72906141a9565b915050611acf565b5050565b611b8661234e565b73ffffffffffffffffffffffffffffffffffffffff16611ba46115ed565b73ffffffffffffffffffffffffffffffffffffffff161480611c1a5750611bc961234e565b73ffffffffffffffffffffffffffffffffffffffff16601160009054906101000a900473ffffffffffffffffffffffffffffffffffffffff1673ffffffffffffffffffffffffffffffffffffffff16145b611c59576040517f08c379a0000000000000000000000000000000000000000000000000000000008152600401611c5090614006565b60405180910390fd5b60008273ffffffffffffffffffffffffffffffffffffffff1682604051611c7f9061485a565b60006040518083038185875af1925050503d8060008114611cbc576040519150601f19603f3d011682016040523d82523d6000602084013e611cc1565b606091505b5050905080611d05576040517f08c379a0000000000000000000000000000000000000000000000000000000008152600401611cfc906148bb565b60405180910390fd5b505050565b611d1b611d1561234e565b8361240f565b611d5a576040517f08c379a0000000000000000000000000000000000000000000000000000000008152600401611d5190613f74565b60405180910390fd5b611d6684848484612962565b50505050565b6000600f60009054906101000a900460ff16905090565b6060611d8e826122e2565b611dcd576040517f08c379a0000000000000000000000000000000000000000000000000000000008152600401611dc49061494d565b60405180910390fd5b6000611dd76129be565b90506000815111611df75760405180602001604052806000815250611e22565b80611e0184612a50565b604051602001611e129291906149a9565b6040516020818303038152906040525b915050919050565b600d5481565b600281565b611e3d61234e565b73ffffffffffffffffffffffffffffffffffffffff16611e5b6115ed565b73ffffffffffffffffffffffffffffffffffffffff1614611eb1576040517f08c379a0000000000000000000000000000000000000000000000000000000008152600401611ea8906144b5565b60405180910390fd5b80601160006101000a81548173ffffffffffffffffffffffffffffffffffffffff021916908373ffffffffffffffffffffffffffffffffffffffff16021790555050565b6000600560008473ffffffffffffffffffffffffffffffffffffffff1673ffffffffffffffffffffffffffffffffffffffff16815260200190815260200160002060008373ffffffffffffffffffffffffffffffffffffffff1673ffffffffffffffffffffffffffffffffffffffff16815260200190815260200160002060009054906101000a900460ff16905092915050565b600f60009054906101000a900460ff1681565b611fa461234e565b73ffffffffffffffffffffffffffffffffffffffff16611fc26115ed565b73ffffffffffffffffffffffffffffffffffffffff1614612018576040517f08c379a000000000000000000000000000000000000000000000000000000000815260040161200f906144b5565b60405180910390fd5b600073ffffffffffffffffffffffffffffffffffffffff168173ffffffffffffffffffffffffffffffffffffffff161415612088576040517f08c379a000000000000000000000000000000000000000000000000000000000815260040161207f90614a3f565b60405180910390fd5b6120918161289c565b50565b61209c61234e565b73ffffffffffffffffffffffffffffffffffffffff166120ba6115ed565b73ffffffffffffffffffffffffffffffffffffffff16148061213057506120df61234e565b73ffffffffffffffffffffffffffffffffffffffff16601160009054906101000a900473ffffffffffffffffffffffffffffffffffffffff1673ffffffffffffffffffffffffffffffffffffffff16145b61216f576040517f08c379a000000000000000000000000000000000000000000000000000000000815260040161216690614006565b60405180910390fd5b6000479050600081116121b7576040517f08c379a00000000000000000000000000000000000000000000000000000000081526004016121ae90614aab565b60405180910390fd5b60008273ffffffffffffffffffffffffffffffffffffffff16826040516121dd9061485a565b60006040518083038185875af1925050503d806000811461221a576040519150601f19603f3d011682016040523d82523d6000602084013e61221f565b606091505b5050905080612263576040517f08c379a000000000000000000000000000000000000000000000000000000000815260040161225a906148bb565b60405180910390fd5b505050565b60007f780e9d63000000000000000000000000000000000000000000000000000000007bffffffffffffffffffffffffffffffffffffffffffffffffffffffff1916827bffffffffffffffffffffffffffffffffffffffffffffffffffffffff191614806122db57506122da82612bb1565b5b9050919050565b60008073ffffffffffffffffffffffffffffffffffffffff166002600084815260200190815260200160002060009054906101000a900473ffffffffffffffffffffffffffffffffffffffff1673ffffffffffffffffffffffffffffffffffffffff1614159050919050565b600033905090565b816004600083815260200190815260200160002060006101000a81548173ffffffffffffffffffffffffffffffffffffffff021916908373ffffffffffffffffffffffffffffffffffffffff160217905550808273ffffffffffffffffffffffffffffffffffffffff166123c983611098565b73ffffffffffffffffffffffffffffffffffffffff167f8c5be1e5ebec7d5bd14f71427d1e84f3dd0314c0f7b2291e5b200ac8c7c3b92560405160405180910390a45050565b600061241a826122e2565b612459576040517f08c379a000000000000000000000000000000000000000000000000000000000815260040161245090614b3d565b60405180910390fd5b600061246483611098565b90508073ffffffffffffffffffffffffffffffffffffffff168473ffffffffffffffffffffffffffffffffffffffff1614806124d357508373ffffffffffffffffffffffffffffffffffffffff166124bb8461095e565b73ffffffffffffffffffffffffffffffffffffffff16145b806124e457506124e38185611ef5565b5b91505092915050565b8273ffffffffffffffffffffffffffffffffffffffff1661250d82611098565b73ffffffffffffffffffffffffffffffffffffffff1614612563576040517f08c379a000000000000000000000000000000000000000000000000000000000815260040161255a90614bcf565b60405180910390fd5b600073ffffffffffffffffffffffffffffffffffffffff168273ffffffffffffffffffffffffffffffffffffffff1614156125d3576040517f08c379a00000000000000000000000000000000000000000000000000000000081526004016125ca90614c61565b60405180910390fd5b6125de838383612c93565b6125e9600082612356565b6001600360008573ffffffffffffffffffffffffffffffffffffffff1673ffffffffffffffffffffffffffffffffffffffff16815260200190815260200160002060008282546126399190614c81565b925050819055506001600360008473ffffffffffffffffffffffffffffffffffffffff1673ffffffffffffffffffffffffffffffffffffffff16815260200190815260200160002060008282546126909190614153565b92505081905550816002600083815260200190815260200160002060006101000a81548173ffffffffffffffffffffffffffffffffffffffff021916908373ffffffffffffffffffffffffffffffffffffffff160217905550808273ffffffffffffffffffffffffffffffffffffffff168473ffffffffffffffffffffffffffffffffffffffff167fddf252ad1be2c89b69c2b068fc378daa952ba7f163c4a11628f55a4df523b3ef60405160405180910390a4505050565b600081600001549050919050565b612771828260405180602001604052806000815250612ca3565b5050565b6001816000016000828254019250508190555050565b600061279682611098565b90506127a481600084612c93565b6127af600083612356565b6001600360008373ffffffffffffffffffffffffffffffffffffffff1673ffffffffffffffffffffffffffffffffffffffff16815260200190815260200160002060008282546127ff9190614c81565b925050819055506002600083815260200190815260200160002060006101000a81549073ffffffffffffffffffffffffffffffffffffffff021916905581600073ffffffffffffffffffffffffffffffffffffffff168273ffffffffffffffffffffffffffffffffffffffff167fddf252ad1be2c89b69c2b068fc378daa952ba7f163c4a11628f55a4df523b3ef60405160405180910390a45050565b6000600a60009054906101000a900473ffffffffffffffffffffffffffffffffffffffff16905081600a60006101000a81548173ffffffffffffffffffffffffffffffffffffffff021916908373ffffffffffffffffffffffffffffffffffffffff1602179055508173ffffffffffffffffffffffffffffffffffffffff168173ffffffffffffffffffffffffffffffffffffffff167f8be0079c531659141344cd1fd0a4f28419497f9722a3daafe3b4186f6b6457e060405160405180910390a35050565b61296d8484846124ed565b61297984848484612cfe565b6129b8576040517f08c379a00000000000000000000000000000000000000000000000000000000081526004016129af90614d27565b60405180910390fd5b50505050565b6060600e80546129cd90613d1a565b80601f01602080910402602001604051908101604052809291908181526020018280546129f990613d1a565b8015612a465780601f10612a1b57610100808354040283529160200191612a46565b820191906000526020600020905b815481529060010190602001808311612a2957829003601f168201915b5050505050905090565b60606000821415612a98576040518060400160405280600181526020017f30000000000000000000000000000000000000000000000000000000000000008152509050612bac565b600082905060005b60008214612aca578080612ab3906141a9565b915050600a82612ac39190614d76565b9150612aa0565b60008167ffffffffffffffff811115612ae657612ae561397a565b5b6040519080825280601f01601f191660200182016040528015612b185781602001600182028036833780820191505090505b5090505b60008514612ba557600182612b319190614c81565b9150600a85612b409190614da7565b6030612b4c9190614153565b60f81b818381518110612b6257612b61614316565b5b60200101907effffffffffffffffffffffffffffffffffffffffffffffffffffffffffffff1916908160001a905350600a85612b9e9190614d76565b9450612b1c565b8093505050505b919050565b60007f80ac58cd000000000000000000000000000000000000000000000000000000007bffffffffffffffffffffffffffffffffffffffffffffffffffffffff1916827bffffffffffffffffffffffffffffffffffffffffffffffffffffffff19161480612c7c57507f5b5e139f000000000000000000000000000000000000000000000000000000007bffffffffffffffffffffffffffffffffffffffffffffffffffffffff1916827bffffffffffffffffffffffffffffffffffffffffffffffffffffffff1916145b80612c8c5750612c8b82612e86565b5b9050919050565b612c9e838383612ef0565b505050565b612cad8383613004565b612cba6000848484612cfe565b612cf9576040517f08c379a0000000000000000000000000000000000000000000000000000000008152600401612cf090614d27565b60405180910390fd5b505050565b6000612d1f8473ffffffffffffffffffffffffffffffffffffffff166131d2565b15612e79578373ffffffffffffffffffffffffffffffffffffffff1663150b7a02612d4861234e565b8786866040518563ffffffff1660e01b8152600401612d6a9493929190614e2d565b6020604051808303816000875af1925050508015612da657506040513d601f19601f82011682018060405250810190612da39190614e8e565b60015b612e29573d8060008114612dd6576040519150601f19603f3d011682016040523d82523d6000602084013e612ddb565b606091505b50600081511415612e21576040517f08c379a0000000000000000000000000000000000000000000000000000000008152600401612e1890614d27565b60405180910390fd5b805181602001fd5b63150b7a0260e01b7bffffffffffffffffffffffffffffffffffffffffffffffffffffffff1916817bffffffffffffffffffffffffffffffffffffffffffffffffffffffff191614915050612e7e565b600190505b949350505050565b60007f01ffc9a7000000000000000000000000000000000000000000000000000000007bffffffffffffffffffffffffffffffffffffffffffffffffffffffff1916827bffffffffffffffffffffffffffffffffffffffffffffffffffffffff1916149050919050565b612efb8383836131e5565b600073ffffffffffffffffffffffffffffffffffffffff168373ffffffffffffffffffffffffffffffffffffffff161415612f3e57612f39816131ea565b612f7d565b8173ffffffffffffffffffffffffffffffffffffffff168373ffffffffffffffffffffffffffffffffffffffff1614612f7c57612f7b8382613233565b5b5b600073ffffffffffffffffffffffffffffffffffffffff168273ffffffffffffffffffffffffffffffffffffffff161415612fc057612fbb816133a0565b612fff565b8273ffffffffffffffffffffffffffffffffffffffff168273ffffffffffffffffffffffffffffffffffffffff1614612ffe57612ffd8282613471565b5b5b505050565b600073ffffffffffffffffffffffffffffffffffffffff168273ffffffffffffffffffffffffffffffffffffffff161415613074576040517f08c379a000000000000000000000000000000000000000000000000000000000815260040161306b90614f07565b60405180910390fd5b61307d816122e2565b156130bd576040517f08c379a00000000000000000000000000000000000000000000000000000000081526004016130b490614f73565b60405180910390fd5b6130c960008383612c93565b6001600360008473ffffffffffffffffffffffffffffffffffffffff1673ffffffffffffffffffffffffffffffffffffffff16815260200190815260200160002060008282546131199190614153565b92505081905550816002600083815260200190815260200160002060006101000a81548173ffffffffffffffffffffffffffffffffffffffff021916908373ffffffffffffffffffffffffffffffffffffffff160217905550808273ffffffffffffffffffffffffffffffffffffffff16600073ffffffffffffffffffffffffffffffffffffffff167fddf252ad1be2c89b69c2b068fc378daa952ba7f163c4a11628f55a4df523b3ef60405160405180910390a45050565b600080823b905060008111915050919050565b505050565b6008805490506009600083815260200190815260200160002081905550600881908060018154018082558091505060019003906000526020600020016000909190919091505550565b60006001613240846112bd565b61324a9190614c81565b905060006007600084815260200190815260200160002054905081811461332f576000600660008673ffffffffffffffffffffffffffffffffffffffff1673ffffffffffffffffffffffffffffffffffffffff168152602001908152602001600020600084815260200190815260200160002054905080600660008773ffffffffffffffffffffffffffffffffffffffff1673ffffffffffffffffffffffffffffffffffffffff168152602001908152602001600020600084815260200190815260200160002081905550816007600083815260200190815260200160002081905550505b6007600084815260200190815260200160002060009055600660008573ffffffffffffffffffffffffffffffffffffffff1673ffffffffffffffffffffffffffffffffffffffff16815260200190815260200160002060008381526020019081526020016000206000905550505050565b600060016008805490506133b49190614c81565b90506000600960008481526020019081526020016000205490506000600883815481106133e4576133e3614316565b5b90600052602060002001549050806008838154811061340657613405614316565b5b90600052602060002001819055508160096000838152602001908152602001600020819055506009600085815260200190815260200160002060009055600880548061345557613454614f93565b5b6001900381819060005260206000200160009055905550505050565b600061347c836112bd565b905081600660008573ffffffffffffffffffffffffffffffffffffffff1673ffffffffffffffffffffffffffffffffffffffff168152602001908152602001600020600083815260200190815260200160002081905550806007600084815260200190815260200160002081905550505050565b8280546134fc90613d1a565b90600052602060002090601f01602090048101928261351e5760008555613565565b82601f1061353757805160ff1916838001178555613565565b82800160010185558215613565579182015b82811115613564578251825591602001919060010190613549565b5b5090506135729190613576565b5090565b5b8082111561358f576000816000905550600101613577565b5090565b6000604051905090565b600080fd5b600080fd5b60007fffffffff0000000000000000000000000000000000000000000000000000000082169050919050565b6135dc816135a7565b81146135e757600080fd5b50565b6000813590506135f9816135d3565b92915050565b6000602082840312156136155761361461359d565b5b6000613623848285016135ea565b91505092915050565b60008115159050919050565b6136418161362c565b82525050565b600060208201905061365c6000830184613638565b92915050565b600081519050919050565b600082825260208201905092915050565b60005b8381101561369c578082015181840152602081019050613681565b838111156136ab576000848401525b50505050565b6000601f19601f8301169050919050565b60006136cd82613662565b6136d7818561366d565b93506136e781856020860161367e565b6136f0816136b1565b840191505092915050565b6000602082019050818103600083015261371581846136c2565b905092915050565b6000819050919050565b6137308161371d565b811461373b57600080fd5b50565b60008135905061374d81613727565b92915050565b6000602082840312156137695761376861359d565b5b60006137778482850161373e565b91505092915050565b600073ffffffffffffffffffffffffffffffffffffffff82169050919050565b60006137ab82613780565b9050919050565b6137bb816137a0565b82525050565b60006020820190506137d660008301846137b2565b92915050565b6137e5816137a0565b81146137f057600080fd5b50565b600081359050613802816137dc565b92915050565b6000806040838503121561381f5761381e61359d565b5b600061382d858286016137f3565b925050602061383e8582860161373e565b9150509250929050565b6138518161371d565b82525050565b600060208201905061386c6000830184613848565b92915050565b60008060006060848603121561388b5761388a61359d565b5b6000613899868287016137f3565b93505060206138aa868287016137f3565b92505060406138bb8682870161373e565b9150509250925092565b60006138d082613780565b9050919050565b6138e0816138c5565b81146138eb57600080fd5b50565b6000813590506138fd816138d7565b92915050565b6000602082840312156139195761391861359d565b5b6000613927848285016138ee565b91505092915050565b600080604083850312156139475761394661359d565b5b60006139558582860161373e565b9250506020613966858286016137f3565b9150509250929050565b600080fd5b600080fd5b7f4e487b7100000000000000000000000000000000000000000000000000000000600052604160045260246000fd5b6139b2826136b1565b810181811067ffffffffffffffff821117156139d1576139d061397a565b5b80604052505050565b60006139e4613593565b90506139f082826139a9565b919050565b600067ffffffffffffffff821115613a1057613a0f61397a565b5b613a19826136b1565b9050602081019050919050565b82818337600083830152505050565b6000613a48613a43846139f5565b6139da565b905082815260208101848484011115613a6457613a63613975565b5b613a6f848285613a26565b509392505050565b600082601f830112613a8c57613a8b613970565b5b8135613a9c848260208601613a35565b91505092915050565b600060208284031215613abb57613aba61359d565b5b600082013567ffffffffffffffff811115613ad957613ad86135a2565b5b613ae584828501613a77565b91505092915050565b600060208284031215613b0457613b0361359d565b5b6000613b12848285016137f3565b91505092915050565b613b248161362c565b8114613b2f57600080fd5b50565b600081359050613b4181613b1b565b92915050565b60008060408385031215613b5e57613b5d61359d565b5b6000613b6c858286016137f3565b9250506020613b7d85828601613b32565b9150509250929050565b600067ffffffffffffffff821115613ba257613ba161397a565b5b613bab826136b1565b9050602081019050919050565b6000613bcb613bc684613b87565b6139da565b905082815260208101848484011115613be757613be6613975565b5b613bf2848285613a26565b509392505050565b600082601f830112613c0f57613c0e613970565b5b8135613c1f848260208601613bb8565b91505092915050565b60008060008060808587031215613c4257613c4161359d565b5b6000613c50878288016137f3565b9450506020613c61878288016137f3565b9350506040613c728782880161373e565b925050606085013567ffffffffffffffff811115613c9357613c926135a2565b5b613c9f87828801613bfa565b91505092959194509250565b60008060408385031215613cc257613cc161359d565b5b6000613cd0858286016137f3565b9250506020613ce1858286016137f3565b9150509250929050565b7f4e487b7100000000000000000000000000000000000000000000000000000000600052602260045260246000fd5b60006002820490506001821680613d3257607f821691505b60208210811415613d4657613d45613ceb565b5b50919050565b7f4552433732313a20617070726f76656420717565727920666f72206e6f6e657860008201527f697374656e7420746f6b656e0000000000000000000000000000000000000000602082015250565b6000613da8602c8361366d565b9150613db382613d4c565b604082019050919050565b60006020820190508181036000830152613dd781613d9b565b9050919050565b7f4552433732313a20617070726f76616c20746f2063757272656e74206f776e6560008201527f7200000000000000000000000000000000000000000000000000000000000000602082015250565b6000613e3a60218361366d565b9150613e4582613dde565b604082019050919050565b60006020820190508181036000830152613e6981613e2d565b9050919050565b7f4552433732313a20617070726f76652063616c6c6572206973206e6f74206f7760008201527f6e6572206e6f7220617070726f76656420666f7220616c6c0000000000000000602082015250565b6000613ecc60388361366d565b9150613ed782613e70565b604082019050919050565b60006020820190508181036000830152613efb81613ebf565b9050919050565b7f4552433732313a207472616e736665722063616c6c6572206973206e6f74206f60008201527f776e6572206e6f7220617070726f766564000000000000000000000000000000602082015250565b6000613f5e60318361366d565b9150613f6982613f02565b604082019050919050565b60006020820190508181036000830152613f8d81613f51565b9050919050565b7f43616c6c6572206973206e6f7420746865206f776e6572206f72206d616e616760008201527f6572000000000000000000000000000000000000000000000000000000000000602082015250565b6000613ff060228361366d565b9150613ffb82613f94565b604082019050919050565b6000602082019050818103600083015261401f81613fe3565b9050919050565b7f455243373231456e756d657261626c653a206f776e657220696e646578206f7560008201527f74206f6620626f756e6473000000000000000000000000000000000000000000602082015250565b6000614082602b8361366d565b915061408d82614026565b604082019050919050565b600060208201905081810360008301526140b181614075565b9050919050565b7f416363657373205061737320536f6c64204f7574000000000000000000000000600082015250565b60006140ee60148361366d565b91506140f9826140b8565b602082019050919050565b6000602082019050818103600083015261411d816140e1565b9050919050565b7f4e487b7100000000000000000000000000000000000000000000000000000000600052601160045260246000fd5b600061415e8261371d565b91506141698361371d565b9250827fffffffffffffffffffffffffffffffffffffffffffffffffffffffffffffffff0382111561419e5761419d614124565b5b828201905092915050565b60006141b48261371d565b91507fffffffffffffffffffffffffffffffffffffffffffffffffffffffffffffffff8214156141e7576141e6614124565b5b600182019050919050565b7f4552433732314275726e61626c653a2063616c6c6572206973206e6f74206f7760008201527f6e6572206e6f7220617070726f76656400000000000000000000000000000000602082015250565b600061424e60308361366d565b9150614259826141f2565b604082019050919050565b6000602082019050818103600083015261427d81614241565b9050919050565b7f455243373231456e756d657261626c653a20676c6f62616c20696e646578206f60008201527f7574206f6620626f756e64730000000000000000000000000000000000000000602082015250565b60006142e0602c8361366d565b91506142eb82614284565b604082019050919050565b6000602082019050818103600083015261430f816142d3565b9050919050565b7f4e487b7100000000000000000000000000000000000000000000000000000000600052603260045260246000fd5b7f4552433732313a206f776e657220717565727920666f72206e6f6e657869737460008201527f656e7420746f6b656e0000000000000000000000000000000000000000000000602082015250565b60006143a160298361366d565b91506143ac82614345565b604082019050919050565b600060208201905081810360008301526143d081614394565b9050919050565b7f4552433732313a2062616c616e636520717565727920666f7220746865207a6560008201527f726f206164647265737300000000000000000000000000000000000000000000602082015250565b6000614433602a8361366d565b915061443e826143d7565b604082019050919050565b6000602082019050818103600083015261446281614426565b9050919050565b7f4f776e61626c653a2063616c6c6572206973206e6f7420746865206f776e6572600082015250565b600061449f60208361366d565b91506144aa82614469565b602082019050919050565b600060208201905081810360008301526144ce81614492565b9050919050565b7f4552433732313a20617070726f766520746f2063616c6c657200000000000000600082015250565b600061450b60198361366d565b9150614516826144d5565b602082019050919050565b6000602082019050818103600083015261453a816144fe565b9050919050565b7f53616c65206d7573742062652061637469766520746f206d696e74204163636560008201527f7373205061737300000000000000000000000000000000000000000000000000602082015250565b600061459d60278361366d565b91506145a882614541565b604082019050919050565b600060208201905081810360008301526145cc81614590565b9050919050565b60006145de8261371d565b91506145e98361371d565b9250817fffffffffffffffffffffffffffffffffffffffffffffffffffffffffffffffff048311821515161561462257614621614124565b5b828202905092915050565b7f45746865722076616c75652073656e74206973206e6f7420636f727265637400600082015250565b6000614663601f8361366d565b915061466e8261462d565b602082019050919050565b6000602082019050818103600083015261469281614656565b9050919050565b7f596f752063616e206f6e6c79206d696e7420312041636365737320706173736560008201527f7320617420612074696d65000000000000000000000000000000000000000000602082015250565b60006146f5602b8361366d565b915061470082614699565b604082019050919050565b60006020820190508181036000830152614724816146e8565b9050919050565b7f507572636861736520776f756c64206578656564206d6178207061737365732060008201527f7065722077616c6c657400000000000000000000000000000000000000000000602082015250565b6000614787602a8361366d565b91506147928261472b565b604082019050919050565b600060208201905081810360008301526147b68161477a565b9050919050565b7f4163636573732050617373657320536f6c64204f757400000000000000000000600082015250565b60006147f360168361366d565b91506147fe826147bd565b602082019050919050565b60006020820190508181036000830152614822816147e6565b9050919050565b600081905092915050565b50565b6000614844600083614829565b915061484f82614834565b600082019050919050565b600061486582614837565b9150819050919050565b7f5472616e73666572206661696c65642e00000000000000000000000000000000600082015250565b60006148a560108361366d565b91506148b08261486f565b602082019050919050565b600060208201905081810360008301526148d481614898565b9050919050565b7f4552433732314d657461646174613a2055524920717565727920666f72206e6f60008201527f6e6578697374656e7420746f6b656e0000000000000000000000000000000000602082015250565b6000614937602f8361366d565b9150614942826148db565b604082019050919050565b600060208201905081810360008301526149668161492a565b9050919050565b600081905092915050565b600061498382613662565b61498d818561496d565b935061499d81856020860161367e565b80840191505092915050565b60006149b58285614978565b91506149c18284614978565b91508190509392505050565b7f4f776e61626c653a206e6577206f776e657220697320746865207a65726f206160008201527f6464726573730000000000000000000000000000000000000000000000000000602082015250565b6000614a2960268361366d565b9150614a34826149cd565b604082019050919050565b60006020820190508181036000830152614a5881614a1c565b9050919050565b7f42616c616e6365206973207a65726f0000000000000000000000000000000000600082015250565b6000614a95600f8361366d565b9150614aa082614a5f565b602082019050919050565b60006020820190508181036000830152614ac481614a88565b9050919050565b7f4552433732313a206f70657261746f7220717565727920666f72206e6f6e657860008201527f697374656e7420746f6b656e0000000000000000000000000000000000000000602082015250565b6000614b27602c8361366d565b9150614b3282614acb565b604082019050919050565b60006020820190508181036000830152614b5681614b1a565b9050919050565b7f4552433732313a207472616e73666572206f6620746f6b656e2074686174206960008201527f73206e6f74206f776e0000000000000000000000000000000000000000000000602082015250565b6000614bb960298361366d565b9150614bc482614b5d565b604082019050919050565b60006020820190508181036000830152614be881614bac565b9050919050565b7f4552433732313a207472616e7366657220746f20746865207a65726f2061646460008201527f7265737300000000000000000000000000000000000000000000000000000000602082015250565b6000614c4b60248361366d565b9150614c5682614bef565b604082019050919050565b60006020820190508181036000830152614c7a81614c3e565b9050919050565b6000614c8c8261371d565b9150614c978361371d565b925082821015614caa57614ca9614124565b5b828203905092915050565b7f4552433732313a207472616e7366657220746f206e6f6e20455243373231526560008201527f63656976657220696d706c656d656e7465720000000000000000000000000000602082015250565b6000614d1160328361366d565b9150614d1c82614cb5565b604082019050919050565b60006020820190508181036000830152614d4081614d04565b9050919050565b7f4e487b7100000000000000000000000000000000000000000000000000000000600052601260045260246000fd5b6000614d818261371d565b9150614d8c8361371d565b925082614d9c57614d9b614d47565b5b828204905092915050565b6000614db28261371d565b9150614dbd8361371d565b925082614dcd57614dcc614d47565b5b828206905092915050565b600081519050919050565b600082825260208201905092915050565b6000614dff82614dd8565b614e098185614de3565b9350614e1981856020860161367e565b614e22816136b1565b840191505092915050565b6000608082019050614e4260008301876137b2565b614e4f60208301866137b2565b614e5c6040830185613848565b8181036060830152614e6e8184614df4565b905095945050505050565b600081519050614e88816135d3565b92915050565b600060208284031215614ea457614ea361359d565b5b6000614eb284828501614e79565b91505092915050565b7f4552433732313a206d696e7420746f20746865207a65726f2061646472657373600082015250565b6000614ef160208361366d565b9150614efc82614ebb565b602082019050919050565b60006020820190508181036000830152614f2081614ee4565b9050919050565b7f4552433732313a20746f6b656e20616c7265616479206d696e74656400000000600082015250565b6000614f5d601c8361366d565b9150614f6882614f27565b602082019050919050565b60006020820190508181036000830152614f8c81614f50565b9050919050565b7f4e487b7100000000000000000000000000000000000000000000000000000000600052603160045260246000fdfea264697066735822122001a8f3e9269c3f9f1c730ee03cb226e3e93442ef00917e90556b6d0e111f247764736f6c634300080b0033",
  "immutableReferences": {},
  "source": "//SPDX-License-Identifier: UNLICENSED\r\npragma solidity ^0.8.0;\r\n\r\nimport \"@openzeppelin/contracts/token/ERC721/ERC721.sol\";\r\nimport \"@openzeppelin/contracts/token/ERC721/extensions/ERC721Enumerable.sol\";\r\nimport \"@openzeppelin/contracts/token/ERC721/extensions/ERC721Burnable.sol\";\r\nimport \"@openzeppelin/contracts/access/Ownable.sol\";\r\nimport \"@openzeppelin/contracts/utils/Address.sol\";\r\nimport \"@openzeppelin/contracts/utils/Counters.sol\";\r\n\r\n\r\ncontract BlackBoxAccessPass is ERC721, ERC721Enumerable, ERC721Burnable, Ownable {\r\n    using Counters for Counters.Counter;\r\n\r\n    Counters.Counter private _accessPassCounter;\r\n    uint public MAX_ACCESS_PASS = 3500;\r\n    uint256 public passPrice = 1.95 ether; //1.95 ETH\r\n    string public baseURI;\r\n    bool public saleIsActive = false;\r\n    uint public constant maxPassTxn = 2;\r\n    mapping (address => uint256) passesInWallet;\r\n    address private _manager;\r\n\r\n    constructor() ERC721(\"BLACK BOX COLLECTIVE ACCESS PASS\", \"ACCESS PASS\") Ownable() {\r\n    }\r\n    function setManager(address manager) public onlyOwner {\r\n        _manager = manager;\r\n    }\r\n    \r\n    modifier onlyOwnerOrManager() {\r\n        require(owner() == _msgSender() || _manager == _msgSender(), \"Caller is not the owner or manager\");\r\n        _;\r\n    }\r\n\r\n    function setBaseURI(string memory newBaseURI) public onlyOwnerOrManager {\r\n        baseURI = newBaseURI;\r\n    }\r\n\r\n    function setMaxSupply(uint _maxSupply) public onlyOwnerOrManager {\r\n        MAX_ACCESS_PASS = _maxSupply;\r\n    }\r\n    \r\n    function setPrice(uint256 _price) public onlyOwnerOrManager {\r\n        passPrice = _price;\r\n    }\r\n\r\n    function _baseURI() internal view virtual override returns (string memory){\r\n        return baseURI;\r\n    }\r\n\r\n    function totalToken() public view returns (uint256) {\r\n        return _accessPassCounter.current();\r\n    }\r\n    \r\n    function contractBalance() public view onlyOwnerOrManager returns (uint256) {\r\n        return address(this).balance;\r\n    }\r\n\r\n    function flipSale() public onlyOwnerOrManager {\r\n        saleIsActive = !saleIsActive;\r\n    }\r\n\r\n    function stateSale() public view returns (bool){\r\n        return saleIsActive;\r\n    }\r\n\r\n    function withdrawForOwner(address payable to) public payable onlyOwnerOrManager{\r\n        to.transfer(address(this).balance);\r\n    }\r\n\r\n    function withdrawAll(address _address) public onlyOwnerOrManager {\r\n        uint256 balance = address(this).balance;\r\n        require(balance > 0,\"Balance is zero\");\r\n        (bool success, ) = _address.call{value: balance}(\"\");\r\n        require(success, \"Transfer failed.\");\r\n    }\r\n\r\n    function _widthdraw(address _address, uint256 _amount) public onlyOwnerOrManager{\r\n        (bool success, ) = _address.call{value: _amount}(\"\");\r\n        require(success, \"Transfer failed.\");\r\n    }\r\n\r\n    function reserveMintPass(uint256 reserveAmount, address mintAddress) public onlyOwnerOrManager {\r\n        require(totalSupply() <= MAX_ACCESS_PASS, \"Access Pass Sold Out\");\r\n        for (uint256 i=0; i<reserveAmount; i++){\r\n            _safeMint(mintAddress, _accessPassCounter.current() + 1);\r\n            _accessPassCounter.increment();\r\n        }\r\n    }\r\n\r\n    function mintAccessPass(uint256 numberOfTokens) public payable {\r\n        require(saleIsActive, \"Sale must be active to mint Access Pass\");\r\n        require(passPrice * numberOfTokens <= msg.value, \"Ether value sent is not correct\");\r\n        require(numberOfTokens <= maxPassTxn, \"You can only mint 1 Access passes at a time\");\r\n        require(passesInWallet[msg.sender] <= 2,\"Purchase would exeed max passes per wallet\");\r\n        require(totalSupply() + numberOfTokens <= MAX_ACCESS_PASS, \"Access Passes Sold Out\");\r\n\r\n        for (uint256 i=0; i<numberOfTokens; i++){\r\n            uint256 mintIndex = _accessPassCounter.current()+1;\r\n            if (mintIndex <= MAX_ACCESS_PASS){\r\n                _safeMint(msg.sender, mintIndex);\r\n                _accessPassCounter.increment();\r\n                passesInWallet[msg.sender] += 1;\r\n            }\r\n        }\r\n    }\r\n\r\n    function _beforeTokenTransfer(address from, address to, uint256 tokenId) internal override(ERC721, ERC721Enumerable) {\r\n        super._beforeTokenTransfer(from, to, tokenId);\r\n    }\r\n\r\n    function supportsInterface(bytes4 interfaceId) public view override(ERC721, ERC721Enumerable) returns (bool) {\r\n        return super.supportsInterface(interfaceId);\r\n    }\r\n\r\n}",
  "sourcePath": "C:\\Users\\nickn\\BlackBoxCollective\\AccessPass-NFT\\src\\contracts\\BlackBoxAccessPass.sol",
  "compiler": {
    "name": "solc",
    "version": "0.8.11+commit.d7f03943.Emscripten.clang"
  },
  "schemaVersion": "3.4.3",
  "updatedAt": "2021-12-21T23:54:23.337Z",
  "networkType": "ethereum",
  "devdoc": {
    "kind": "dev",
    "methods": {
      "approve(address,uint256)": {
        "details": "See {IERC721-approve}."
      },
      "balanceOf(address)": {
        "details": "See {IERC721-balanceOf}."
      },
      "burn(uint256)": {
        "details": "Burns `tokenId`. See {ERC721-_burn}. Requirements: - The caller must own `tokenId` or be an approved operator."
      },
      "getApproved(uint256)": {
        "details": "See {IERC721-getApproved}."
      },
      "isApprovedForAll(address,address)": {
        "details": "See {IERC721-isApprovedForAll}."
      },
      "name()": {
        "details": "See {IERC721Metadata-name}."
      },
      "owner()": {
        "details": "Returns the address of the current owner."
      },
      "ownerOf(uint256)": {
        "details": "See {IERC721-ownerOf}."
      },
      "renounceOwnership()": {
        "details": "Leaves the contract without owner. It will not be possible to call `onlyOwner` functions anymore. Can only be called by the current owner. NOTE: Renouncing ownership will leave the contract without an owner, thereby removing any functionality that is only available to the owner."
      },
      "safeTransferFrom(address,address,uint256)": {
        "details": "See {IERC721-safeTransferFrom}."
      },
      "safeTransferFrom(address,address,uint256,bytes)": {
        "details": "See {IERC721-safeTransferFrom}."
      },
      "setApprovalForAll(address,bool)": {
        "details": "See {IERC721-setApprovalForAll}."
      },
      "symbol()": {
        "details": "See {IERC721Metadata-symbol}."
      },
      "tokenByIndex(uint256)": {
        "details": "See {IERC721Enumerable-tokenByIndex}."
      },
      "tokenOfOwnerByIndex(address,uint256)": {
        "details": "See {IERC721Enumerable-tokenOfOwnerByIndex}."
      },
      "tokenURI(uint256)": {
        "details": "See {IERC721Metadata-tokenURI}."
      },
      "totalSupply()": {
        "details": "See {IERC721Enumerable-totalSupply}."
      },
      "transferFrom(address,address,uint256)": {
        "details": "See {IERC721-transferFrom}."
      },
      "transferOwnership(address)": {
        "details": "Transfers ownership of the contract to a new account (`newOwner`). Can only be called by the current owner."
      }
    },
    "version": 1
  },
  "userdoc": {
    "kind": "user",
    "methods": {},
    "version": 1
  }
}